:020000040800F2
:10000000180700204D0200085B1300084F1200087B
:1000100059130008AF06000821180008000000006E
:100020000000000000000000000000008917000828
:10003000B106000800000000751600088B170008C4
:1000400067020008670200086702000867020008EC
:1000500067020008670200086702000867020008DC
:1000600067020008670200086702000867020008CC
:1000700067020008670200086702000867020008BC
:1000800067020008670200086702000867020008AC
:10009000670200086702000867020008670200089C
:1000A000670200086702000867020008670200088C
:1000B000670200086702000867020008670200087C
:1000C000670200086702000867020008670200086C
:1000D000670200086702000867020008670200085C
:1000E000670200086702000867020008670200084C
:1000F000670200086702000867020008670200083C
:10010000670200086702000867020008670200082B
:10011000670200086702000867020008670200081B
:10012000670200086702000867020008670200080B
:1001300067020008670200086702000867020008FB
:1001400067020008670200086702000867020008EB
:1001500067020008670200086702000867020008DB
:1001600067020008670200086702000867020008CB
:10017000670200086702000867020008000000002C
:1001800067020008670200086702000867020008AB
:10019000670200086702000867020008670200089B
:1001A00000000000000000006702000800F002F8F4
:1001B00000F03CF80AA090E8000C82448344AAF1C5
:1001C0000107DA4501D100F031F8AFF2090EBAE8C3
:1001D0000F0013F0010F18BFFB1A43F0010318477B
:1001E000EC1E00000C1F0000103A24BF78C878C134
:1001F000FAD8520724BF30C830C144BF04680C602D
:10020000704700000023002400250026103A28BF74
:1002100078C1FBD8520728BF30C148BF0B60704778
:100220001FB501F04DFC1FBD10B510BD00F0CFF89B
:100230001146FFF7F5FF01F0FBFB00F0EDF803B40A
:10024000FFF7F2FF03BC00F0F5F800000948804713
:1002500009480047FEE7FEE7FEE7FEE7FEE7FEE7A8
:10026000FEE7FEE7FEE7FEE704480549054A064BC0
:100270007047000011180008AD01000818010020A7
:1002800018070020180300201803002053EA020C6E
:1002900000F069802DE9F04B4FF00006002B1FBFE6
:1002A000B3FA83F503FA05F424FA05F65E4012BFAB
:1002B0001643B2FA82F502FA05F4C5F120051EBF15
:1002C00022FA05FC44EA0C04203556EA044C4FEAB5
:1002D000144418BF641C4FF000084FF0000990420E
:1002E00071EB030C39D3002919BFB1FA81F701FA78
:1002F00007F6B0FA80F700FA07F6C7F120071EBF2D
:1003000020FA07FC46EA0C062037B6FBF4FCA7EB04
:100310000507103F07F01F0BCBF120060CFA0BFB73
:100320002CFA06F644BFB3460026202FA4BF5E4633
:100330004FF0000B5BEA060C08BF4FF0010B19EB06
:100340000B09ABFB027C48EB0608C01B06FB02CC8A
:100350000BFB03CC71EB0C01C1E70B460246414697
:100360004846BDE8F08B13B54FF000004FF0000198
:10037000AFF30080BDE81C4070474FF0000200B5AD
:10038000134694469646203922BFA0E80C50A0E8B8
:100390000C50B1F12001BFF4F7AF090728BFA0E866
:1003A0000C5048BF0CC05DF804EB890028BF40F832
:1003B000042B08BF704748BF20F8022B11F0804F74
:1003C00018BF00F8012B704770477047704775469B
:1003D00000F02CF8AE4605006946534620F00700B1
:1003E000854618B020B5FFF73FFFBDE820404FF02D
:1003F00000064FF000074FF000084FF0000B21F00F
:100400000701AC46ACE8C009ACE8C009ACE8C009DB
:10041000ACE8C0098D46704710B50446AFF30080C4
:100420002046BDE81040FFF70ABF000000487047B3
:10043000B400002001491820ABBEFEE726000200F0
:100440007047000001220421014800F04DBA00006D
:100450000008024000220421014800F045BA0000D3
:10046000000802407047000001220821014800F006
:100470003BBA00000008024000220821014800F0B9
:1004800033BA000000080240704730B504464FF40C
:100490007A7502E0284600F004F8641EA4B2F9D28E
:1004A00030BD70B54FF0E02400226569A8214843B3
:1004B000A169A3698B42FCD002D2A1EB030102E047
:1004C000A5EB030631440A4419468242F1D370BDBC
:1004D00010B5FFF7C7FFFFF7D7FF01F0B3F90446E8
:1004E00001F038FA204310BD2DE9FC4107460020F9
:1004F00016460D4600900190FFF7ACFF922000F0E9
:10050000BDF806226946122000F09AF8FFF79AFF1C
:100510009DF801009DF80010000200B2084300EEB3
:10052000100A464CB8EEC00AD4ED000A20EE200AAC
:1005300085ED000A9DF803009DF80210000200B24C
:10054000084300EE100AD4ED000AB8EEC00A20EE0F
:10055000200A85ED010A9DF805009DF804100002AF
:1005600000B2084300EE100AB8EEC00A20EE200ADE
:1005700085ED020AFFF780FF08226946002000F09F
:100580005FF8FFF771FF9DF800000F2830D19DF84C
:1005900003009DF80210000200B2084300EE100AAA
:1005A000D4ED010AB8EEC00A20EE200A87ED000A59
:1005B0009DF805009DF80410000200B2084300EE0B
:1005C000100AD4ED010AB8EEC00A20EE200A87ED29
:1005D000010A9DF807009DF80610000200B20843CA
:1005E00000EE100AB8EEC00A20EE200A87ED020ADB
:1005F000FFF730FFA22000F041F8022269462220D6
:1006000000F01EF8FFF71EFF9DF800009DF8011096
:10061000C00040EA5110B0F5806F01DBA0F500602A
:1006200000EE100AB4EE001AF8EEC00AB3EE070AA4
:1006300000EE810A86ED000ABDE8FC81180000206A
:1006400070B514460D4640F0800000F017F806E043
:10065000552000F013F8641E05F8010BE4B2002CDD
:10066000F6D170BD10B50C4640F0800000F006F8E1
:10067000552000F003F8207010BD000001B582B0D5
:100680004FF47A700090012301AA02A9024800F0F9
:10069000D9FC9DF804000EBD4400002010B50C46A6
:1006A000FFF7ECFF2046BDE81040FFF7E7BFFEE78D
:1006B000704700002DE9F84FDFF8F8A1002201246F
:1006C00003254FF00F090AF1040BAAF1040E00BF35
:1006D0000B6804FA02F63340B34270D10F7907F089
:1006E0000307012F01D0022F16D187684FEA420875
:1006F00005FA08FC27EA0C07D1F80CC00CFA08FC34
:100700004CEA070CC0F808C04768B7430E79C6F337
:10071000001696403E4346600E79F643B6070AD06F
:10072000C7684FEA420C05FA0CF6B7438E6806FA22
:100730000CF63E43C6600E7906F00306022E10D179
:10074000D60800EB8608D8F8206057074FEAD76C28
:1007500009FA0CF7BE430F6907FA0CF73743C8F8DC
:10076000207006684FEA420C05FA0CF7BE430F7979
:1007700007F0030707FA0CF7374307604E6816F4D3
:10078000403F1CD04C4E376847F48047376036688E
:1007900022F0030706F480460096484E07EB060C4D
:1007A000DCF8086897073F0F09FA07F826EA0806F9
:1007B000DFF80C81404503D14FF0000841E072E0C2
:1007C000DFF80081404502D14FF0010839E0DFF841
:1007D000F880404502D14FF0020832E0DFF8EC80AB
:1007E000404502D14FF003082BE0DFF8E48040459C
:1007F00002D14FF0040824E0DFF8D880404502D150
:100800004FF005081DE0DFF8D080404502D14FF0E1
:10081000060816E0DFF8C480404502D14FF0070813
:100820000FE0DFF8BC80404502D14FF0080808E037
:10083000DFF8B080404502D14FF0090801E04FF0E9
:100840000A0808FA07F848EA0608CCF80888DAF82F
:1008500000605746D1F804C09E435FEACC2C00D517
:100860001E433E60DBF800605F46D1F804C09E4343
:100870005FEA8C2C00D51E433E60DEF800607746B0
:10088000D1F804C09E435FEA8C3C00D51E433E6015
:10089000084F083F3E68D1F804C09E435FEACC3C55
:1008A00000D51E433E60521C102AFFF411AFBDE874
:1008B000F88F0000083C01404438024000300140FD
:1008C000000002400004024000080240000C024008
:1008D000001002400014024000180240001C0240B8
:1008E00000200240002402400AB1816170470904DF
:1008F000FBE7000001488068704700000800002006
:100900000248816802781144816070470800002025
:100910000B4810B5016841F400710160016841F4B1
:1009200080610160016841F480710160032000F082
:1009300061F80F2000F006F800F024F8002010BD48
:10094000003C024070B50D4D04464FF47A71287892
:10095000B1FBF0F00A490968B1FBF0F000F063FC6C
:1009600048B9102C07D200222146501E00F022F870
:1009700000206C6070BD012070BD000008000020E8
:10098000140000200A4808B5016841F48041016064
:10099000006800F4804000900548001F016841F0A5
:1009A00080510160006800F08050009008BD000098
:1009B00044380240F0B40E4B1B680C46C3F30223CC
:1009C000C3F10705042D00D90425191D072901D2FB
:1009D000002300E0DB1E012606FA05F1491E214036
:1009E00099409E40761E16403143F0BC00F019BF7E
:1009F0000CED00E0064900F0070208684FF6FF031F
:100A0000184040EA0220034A104308607047000083
:100A10000CED00E00000FA052DE9F0470E46050058
:100A200065D0DFF81481D8F80000F7B200F00F00AD
:100A3000B04207D288F80070D8F8000000F00F002C
:100A4000B04254D128683D4C810712D5400703D5E8
:100A5000206840F4E05020602878000703D5206823
:100A600040F4604020602068A96820F0F00008434E
:100A700020602878C0072DD03049686808390128DF
:100A800012D0022813D0032811D009688907002941
:100A90002DDA216821F0030101432160FFF72AFFCD
:100AA000814641F2883A0EE009688903EFE7096858
:100AB0008901ECE7FFF71EFFA0EB0901514502D9C0
:100AC0000320BDE8F0872068696800F00C00B0EBF7
:100AD000810FEFD1D8F80010404601F00F01B1426C
:100AE00007D90770006800F00F00B04201D0012064
:100AF000E7E72878400705D52068E96820F4E0504A
:100B0000084320602878000706D52068296920F46A
:100B1000604040EAC100206000F018F82168084AEF
:100B2000C1F30311515CC8400649086006480068DB
:100B3000FFF708FF0020C4E7003C024008380240ED
:100B4000CA1A0008140000200C000020154810B537
:100B5000006810F00C02144813D01449042A0FD076
:100B6000082A0ED10F4C241F2268236802F03F028E
:100B70005B0207D52068C0F38810A0FB010106E0E6
:100B8000084610BD2168C1F38811A1FB00010023B4
:100B9000FFF77CFB2168C1F30141491C4900B0FB10
:100BA000F1F010BD083802400024F40040787D01C7
:100BB0002DE9F84F04006ED02078DFF84C93C00781
:100BC000A9F104054AD009F104000168C1F38101CB
:100BD000012908D00068C0F3810002280AD1D9F8A1
:100BE0000000400206D52868800337D560680028D9
:100BF000E1D033E06068B0F5803F10D0B0F5A02FB1
:100C0000286810D020F480302860286820F48020E4
:100C100028606068A8B1FFF76DFE06460DE0286801
:100C200040F48030F4E740F480202860F7E700BF0C
:100C3000FFF760FE801B642873D828688003F7D50F
:100C40000CE0FFF757FE064605E000BFFFF752FE37
:100C5000801B6428F0D828688003F7D42078DFF858
:100C6000AC8280074FF0000A3ED5A748001D0168FE
:100C700011F00C0F08D00068C0F3810002280BD1DE
:100C8000D9F80000400207D42868800716D5E0682C
:100C9000012800D112E033E1E068B8B10120C8F8C2
:100CA0000000FFF727FE064605E000BFFFF722FE23
:100CB000801B0228C0D828688007F7D528682169DA
:100CC00020F0F80040EAC10028600DE0C8F800A05C
:100CD000FFF710FE064604E0FFF70CFE801B02281B
:100CE0001FD828688007F7D42078000722D5864FC0
:100CF00087486169703771B101210160FFF7FAFD22
:100D0000064604E0FFF7F6FD801B022809D8386884
:100D10008007F7D50EE0C0F800A0FFF7EBFD064610
:100D200005E082E0FFF7E6FD801B02287DD83868E9
:100D30008007F7D42078400768D5DFF8CCB10027CA
:100D40000BF13C0BDBF80000C0000BD4DBF800100B
:100D500041F08051CBF80010DBF80000012700F0D3
:100D6000805000906B4E3068C00510D4306840F45D
:100D700080703060FFF7BEFD009005E0FFF7BAFD20
:100D80000099401A022850D83068C005F6D55E4E4A
:100D9000A0686C3601280FD00528306810D020F0EC
:100DA00001003060306820F004003060A068B8B105
:100DB000FFF7A0FD00900FE0306840F00100F4E77D
:100DC00040F004003060F7E7FFF794FD0099411A06
:100DD00041F28830814266D830688007F4D50EE051
:100DE000FFF788FD009007E0FFF784FD0099411AA6
:100DF00041F28830814256D830688007F4D42FB150
:100E0000DBF8001021F08051CBF80010A069C8B3C6
:100E10003D49091D0968C1F3810102294AD0022810
:100E2000504607D0C8F8600000E03CE0FFF762FDE4
:100E300004463BE04746C8F86000FFF75BFD064606
:100E400005E000BFFFF756FD801B02282BD828685D
:100E50008001F7D4D4E907010843A16A2E4A490862
:100E600002EB0141626A41EA8211084394F82C10B6
:100E700040EA0161C9F8001001203866FFF73AFD29
:100E8000044606E03EE000BFFFF734FD001B0228E9
:100E900009D828688001F7D534E000BFFFF72AFDA4
:100EA000001B022802D90320BDE8F88F28688001C2
:100EB000F4D427E00128F7D0D9F80000E26900F463
:100EC000800191421CD1226A00F03F01914217D16A
:100ED00047F6C071626A0140B1EB821F10D1A26A6D
:100EE0004FF0FF3300F4403103EB5202B1EB024FFD
:100EF00006D194F82C1000F07060B0EB016F01D0B7
:100F00000120D1E70020CFE704380240000047422B
:100F1000800E4742007000400000FFFF70B50400E3
:100F200009D0606A002540B125616561A56294F829
:100F3000510040B10CE0012070BD6068B0F5827FC7
:100F4000F4D0E561F2E784F85050204600F044F810
:100F5000022084F851002068016821F040010160FE
:100F6000A088218900F4827001F404410843A1891A
:100F700001F400610843217C01F002010843217D56
:100F800001F001010843218B01F400710843217F26
:100F900001F03801084394F8201001F08001084363
:100FA000218D01F40051084321680860A0690421E3
:100FB00001EA104094F8241001F010010843216860
:100FC00048602068C16921F40061C1616565012044
:100FD00084F85100002070BD10B586B0044614217D
:100FE0006846FFF7CAF914492068884221D113489E
:100FF0000021026842F400520260006800F40050D0
:1010000005900E481438026842F010020260006831
:1010100000F0100005904FF4835000900220CDE9BD
:101020000101032003900520049069460448FFF75E
:1010300041FB06B010BD00000034014044380240BE
:10104000001002402DE9F84F044690F850000027A8
:101050000A9E1D4692468B464FF0010901280ED08C
:10106000012084F85000FFF745FC804694F85100B9
:10107000616801280CD0B1F5827F07D102E002201F
:10108000BDE8F88FA16809B9042801D00227C2E0A1
:10109000BBF1000F27D0BAF1000F24D01DB394F894
:1010A0005100042802D0052084F85100002060651A
:1010B000C4F838A0E587A587C4F830B0E586A586D2
:1010C0002064606420680168490603D4016841F027
:1010D00040010160E068B0F5006F606805D0E8B3DA
:1010E000012D46D07FE0012795E008B1012D39D1CF
:1010F000206B21680088C860206B801C2063E08E14
:10110000401EE0862EE02068816889070FD5E18EB9
:1011100069B1B9F1010F0AD1216B0988C160206B57
:10112000801C2063E08E401EE0864FF0000920689E
:101130008168C9070CD0E18F51B1C068A16B0880EC
:10114000A06B801CA063E08F401EE0874FF0010978
:10115000FFF7D0FBA0EB0800B04200E009E001D3AC
:10116000701C50D1E08E0028CDD1E08F0028CAD16C
:101170003FE0206B216800780873206B401C2063DF
:10118000E08E401EE0862EE02068816889070FD53A
:10119000E18E69B1B9F1010F0AD1216B09780173B0
:1011A000206B401C2063E08E401EE0864FF000095B
:1011B00020688168C9070CD0E18F51B1C068A16B6C
:1011C0000870A06B401CA063E08F401EE0874FF0CA
:1011D0000109FFF78FFBA0EB0800B04202D3701C9F
:1011E00001D010E07EB1E08E0028CDD1E08F002844
:1011F000CAD142463146204600F03EFA28B10127C6
:101200002020606507E0032705E0A06818B9206882
:10121000C16880680090012084F85100002084F8A3
:10122000500038462CE710B5401EB0F1807F01D346
:10123000012010BD4FF0E02460610F21601700F025
:10124000F0FA0020A06107202061002010BDFEE719
:101250002DE9F04186B014216846FFF78EF82A4840
:101260000024016841F010010160016801F01001E3
:101270000591016841F020010160016801F0200141
:101280000591016841F040010160016801F04001F1
:101290000591016841F00401016000681B4E00F0F7
:1012A00004000590002203213046FFF71DFB184F74
:1012B000002204213846FFF717FBDFF85880002290
:1012C0000C214046FFF710FB032000900125CDE9DB
:1012D0000154694630460394FFF7ECF9042000906E
:1012E000CDE90154694638460394FFF7E3F90C2031
:1012F0000090CDE90154694640460394FFF7DAF9BE
:1013000006B0BDE8F0810000303802400014024011
:1013100000180240000802400E4810B50C49016058
:101320004FF48271416000218160C1604FF400720E
:101330000161C0E90512C1610162416281620A2155
:10134000C162FFF7EBFD002801D072B6FEE710BDC9
:101350000034014044000020FEE7FEE770B50024A1
:101360000021204600F0EBF80025002000F071F984
:101370006D1CEDB2802DF8D3641CE4B2082CEFD3C1
:1013800070BD0000104810B5016886B041F0200122
:10139000016000680D4C00F02000059011200190C4
:1013A00003200090039069462046FFF783F901224D
:1013B00002212046FFF798FA012211462046FFF746
:1013C00093FA06B010BD000030380240001402400D
:1013D0002DE9F0410024124E0746802525FA04F23B
:1013E0003A4001213046FFF77FFA012202213046C0
:1013F000FFF77AFA002202213046FFF775FA641CE3
:10140000E4B2082CEAD3012202213046FFF76CFA3D
:101410003046BDE8F04100220221FFF765BA000026
:101420000014024010B50B4C012211462046FFF774
:101430005BFA012202212046FFF756FA0022012121
:101440002046FFF751FA20460022BDE81040022155
:10145000FFF74ABA0014024010B5094C00220121DE
:101460002046FFF741FA012202212046FFF73CFA0D
:1014700020460122BDE810401146FFF735BA0000B2
:101480000014024010B500204FF47A720021491C6C
:101490009142FCD3401C9042F8D3FFF773FFAE207B
:1014A00000F0C6F8D52000F0C3F8802000F0C0F8A6
:1014B000A82000F0BDF83F2000F0BAF8D32000F0DB
:1014C000B7F8002000F0B4F8402000F0B1F8A120F7
:1014D00000F0AEF8C82000F0ABF8DA2000F0A8F871
:1014E000122000F0A5F8812000F0A2F8CF2000F033
:1014F0009FF8D92000F09CF8F12000F099F8DB204B
:1015000000F096F8302000F093F8A42000F090F856
:10151000A62000F08DF88D2000F08AF8142000F04D
:1015200087F8AF2000F084F8BDE81040FFF716BF41
:101530000246012000E05043491EFCD2704710B51E
:101540000C4640F0B00000F073F8102040EA141090
:1015500000F06EF804F00F00BDE8104000F068B82D
:101560002DE9F0410746CE004000083E801E15469A
:101570004FF0FF38F1B2C0B2FFF7E1FF114800248D
:1015800000EB05152819A0F5805090F8000E00F02A
:1015900060F8641CE4B2082CF4D308EB4700F1B205
:1015A000C0B2FFF7CCFF00242819A0F5805090F8B6
:1015B000080E00F04EF8641CE4B2082CF4D3BDE829
:1015C000F0810000DA1A00082DE9F04700241D46DA
:1015D0001646884681460A2713E0291B0A20491E21
:1015E000FFF7A6FFB6FBF0F0B0FBF7F107FB110227
:1015F00008EB0400C1B248463032FFF7B1FF641C6B
:10160000E4B2AC42E9D3BDE8F0872DE9F0411546DC
:101610000E460746002406E03019C1B23846FFF7EF
:101620009FFF641CE4B22A5D002AF5D1BDE8F08179
:1016300010B50446FFF7F6FE7820FFF7C9FE00203C
:10164000FFF7C6FE2046FFF7C3FEBDE81040FFF7D8
:1016500003BF10B50446FFF7E5FE7820FFF7B8FE9C
:101660004020FFF7B5FE2046FFF7B2FEBDE8104070
:10167000FFF7F2BE7047000038B504461248134B1E
:101680000068B0FBF3F04FF47A7358430090606841
:10169000B0F5827F0DD10B460092002280212046BA
:1016A00000F016F870B1606D40F020006065032016
:1016B00038BD009830B1401E009020688068C0435B
:1016C0000006F6D5002038BD1400002000366E015B
:1016D0002DE9F8431E46914688460446089DFFF7CB
:1016E00009F9401B351AFFF705F907462548006838
:1016F000C0F3CB30684338E0701C37D0FFF7FAF8FE
:10170000C01BA84203D215B1009860B32CE020683A
:10171000416821F0E00141606068B0F5827F0BD143
:10172000A068B0F5004F02D0B0F5806F04D12068FA
:10173000016821F040010160A06AB0F5005F09D1A5
:101740002068016821F4005101602068016841F4BB
:1017500000510160012084F85100002084F85000FD
:101760000320BDE8F8830025401E009020688168B2
:1017700038EA010004D000214945BDD10020F0E73E
:101780000121F9E7140000207047FFF7B9B8000005
:1017900010B592B030216846FEF7EFFD14210CA879
:1017A000FEF7EBFD18480024016841F0805101600C
:1017B000006800F0805011901448016821F4404105
:1017C00041F4804101600068069400F440401190AB
:1017D0000220009001200390102004906846FFF73B
:1017E000E7F908B172B6FEE70F20CDE90C040E94BC
:1017F0000F9400210CA81094FFF70EF9002801D0D7
:1018000072B6FEE712B010BD4038024000700040D2
:101810000248016841F470010160704788ED00E002
:10182000FEE70907090E002804DB00F1E02080F83C
:101830000014704700F00F0000F1E02080F8141D44
:10184000704700002DE9F0410024FEF703FE8020E0
:10185000FEF714FF5520FEF711FF5520FEF70EFF8F
:10186000FEF7F0FD9620FEF71CFEFEF7F3FD80204C
:10187000FEF704FF5520FEF701FF5520FEF7FEFEA0
:10188000FEF7E0FD9620FEF70CFEFEF7E3FDB62125
:101890007E20FEF703FFFEF7D5FD5020FEF7F5FD95
:1018A000FEF7D8FD8020FEF7E9FE5520FEF7E6FEA4
:1018B0005520FEF7E3FEFEF7C5FD9620FEF7F1FD8D
:1018C000FEF7C8FD8020FEF7D9FE5520FEF7D6FEB4
:1018D0005520FEF7D3FE0546FEF7B4FD9620FEF731
:1018E000E0FD1E2D02D0FF20BDE8F081184D00BFA5
:1018F000FEF7B0FD04EB44067719A85D7978FEF792
:10190000CDFEFEF79FFD9620FEF7CBFDFEF7A2FD74
:10191000A85D40F08000FEF7B1FE5520FEF7AEFE58
:101920005520FEF7ABFE0646FEF78CFD9620FEF72F
:10193000B8FD7878B04204D004EB440028448078A5
:10194000D2E7641CE4B2062CD2D30020CCE700001E
:1019500020000020F8B500248DF80040FEF78CFD33
:1019600069460020FEF77EFEFEF77EFD9620FEF71C
:1019700098FDFEF781FD69460020FEF773FEFEF735
:1019800073FD9620FEF78DFDFEF776FDB62114203F
:10199000FEF784FEFEF768FD5020FEF776FDFEF7A9
:1019A0006BFD69460020FEF75DFEFEF75DFD9620AB
:1019B000FEF777FDFEF760FD69460020FEF752FE58
:1019C000FEF752FD9620FEF76CFD9DF800000F28F3
:1019D00001D0FF20F8BD154DFEF74EFD04EB440687
:1019E0007719A85D7978FEF759FEFEF73DFD962040
:1019F000FEF757FDFEF740FDA85D6946FEF732FE93
:101A0000FEF732FD9620FEF74CFD78789DF8001029
:101A1000884204D004EB440028448078F8BD641C5C
:101A2000E4B2062CD8D30020F8BD0000320000201C
:101A3000FEF76EFFFFF7ACFEFFF70AFCFFF76CFC4A
:101A4000FFF720FDFFF78AFC194C04E00122042176
:101A50002046FEF749FFFEF73BFD0028F6D125465C
:101A6000144E154C002204212846FEF73DFF124A71
:101A70001049121DA1F10C00FEF736FD01210FA245
:101A80000846FFF7C2FD0823012102202268FFF764
:101A90009BFD20680823401C206096ED010A01216F
:101AA0000320BCEEC00A10EE102AFFF78DFDD9E727
:101AB00000180240A8000020000000204143000060
:101AC0004FF04070E1EE100A704700000000000087
:101AD00000000102030406070809000000000000DE
:101AE00000000000000000000000000000F80000FE
:101AF0000000000000333000000000100C06100C45
:101B00000600000000000000000040C07840C078DF
:101B10004000043F04043F040400007088FC0830C7
:101B20000000001820FF211E0000F008F000E0185F
:101B3000000000211C031E211E0000F00888700018
:101B400000001E2123241927211010160E0000006A
:101B500000000000000000000000000000E0180489
:101B60000200000000071820400000020418E000F6
:101B700000000040201807000000404080F0804036
:101B800040000202010F01020200000000F000000C
:101B900000000101011F0101010000000000000020
:101BA000000080B070000000000000000000000095
:101BB000000000010101010101010000000000001E
:101BC00000000030300000000000000000008060D5
:101BD0001804006018060100000000E0100808105A
:101BE000E000000F102020100F00001010F800007F
:101BF00000000020203F2020000000700808088816
:101C000070000030282422213000003008888848E5
:101C100030000018202020110E000000C02010F815
:101C2000000000070424243F240000F808888808E6
:101C300008000019212020110E0000E010888818EB
:101C40000000000F112020110E0000380808C838CD
:101C500008000000003F00000000007088080888AD
:101C60007000001C222121221C0000E01008081036
:101C7000E0000000312222110F00000000C0C0006F
:101C80000000000000303000000000000080000074
:101C90000000000080600000000000008040201074
:101CA000080000010204081020004040404040406D
:101CB00040000404040404040400000810204080D0
:101CC0000000002010080402010000704808080805
:101CD000F0000000003036010000C030C828E810D5
:101CE000E0000718272423140B000000C038E00090
:101CF0000000203C23020227382008F888888870DA
:101D00000000203F202020110E00C03008080808E5
:101D10003800071820202010080008F808080810CC
:101D2000E000203F202020100F0008F88888E808F5
:101D30001000203F20202320180008F88888E80899
:101D40001000203F200003000000C03008080838C1
:101D5000000007182020221E020008F808000008D2
:101D6000F808203F210101213F20000808F8080859
:101D700000000020203F2020000000000808F80894
:101D80000800C08080807F00000008F888C0281804
:101D90000800203F20012638200008F80800000035
:101DA0000000203F20202020300008F8F800F8F83C
:101DB0000800203F003F003F200008F830C0000826
:101DC000F808203F200007183F00E010080808101E
:101DD000E0000F10202020100F0008F80808080865
:101DE000F000203F210101010000E0100808081068
:101DF000E0000F18242438504F0008F8888888889D
:101E00007000203F2000030C302000708808080874
:101E100038000038202121221C00180808F8080882
:101E200018000000203F2000000008F8080000080B
:101E3000F808001F202020201F000878880000C814
:101E40003808000007380E010000F80800F8000804
:101E5000F800033C0700073C03000818688080680E
:101E6000180820302C03032C30200838C800C8384C
:101E700008000000203F2000000010080808C838B3
:101E800008002038262120201800000000FE020251
:101E900002000000007F40404000000C30C0000005
:101EA0000000000000010638C00000020202FE002F
:101EB0000000004040407F000000000004020202D9
:101EC000040000000000000000000000000000000E
:101ED00000008080808080808080000202040000FA
:101EE00000000000000000000000000080808080F2
:101EF00000000019242222223F2008F800808000E0
:101F00000000003F112020110E00000000808080A2
:101F10000000000E112020201100000000808088A9
:101F2000F800000E112020103F20000080808080EB
:101F30000000001F222222221300008080F08888E7
:101F400088180020203F2020000000008080808032
:101F50008000006B94949493600008F80080808067
:101F60000000203F210000203F20008098980000C2
:101F700000000020203F20200000000000809898F2
:101F8000000000C08080807F000008F80000808092
:101F90008000203F24022D302000000808F80000B7
:101FA00000000020203F2020000080808080808072
:101FB0008000203F20003F20003F80800080808004
:101FC0000000203F210000203F2000008080808012
:101FD0000000001F202020201F0080800080800043
:101FE000000080FFA12020110E00000000808080F2
:101FF0008000000E112020A0FF8080808000808063
:10200000800020203F21200001000000808080808F
:1020100080000033242424241900008080E0808084
:1020200000000000001F20200000808000000080D1
:102030008000001F202020103F2080808000008032
:10204000808000010E300806010080800080008042
:1020500080800F300C030C300F00008080008080E7
:1020600080000020312E0E31200080808000008012
:10207000808080818E7018060100008080808080C2
:1020800080000021302C2221300000000000807CE4
:10209000020200000000003F404000000000FF007E
:1020A000000000000000FF0000000002027C800031
:1020B00000000040403F0000000000060101020255
:1020C000040400000000000000000000EC200008F4
:1020D0000000002044000000E80100083021000852
:1020E00044000020D40600000402000800000000A4
:1020F00000000000010000001000000000000000CF
:102100000024F400E7416B3A58A08B3A7D04017C2F
:10211000000240AB034100055308065804070F00B6
:102120000810820911000A15800B16000C18010D09
:04000005080001AD41
:00000001FF
